:1000000000308A008E2800002E3084008313000800
:10001000031917280630F800F701F70B0D28F80B25
:100020000C287B30F700F70B1328800B0A280800F8
:100030001030B400F701FA01B10CB00C031C2628F3
:100040003208F7070318FA0A3308FA07FA0CF70C14
:10005000F90CF80CB40B1C2808000330B102031C87
:100060003B28313084008313000803193B283928CA
:100070003928800B382808002F08B1002E08B0005E
:10008000B3010C30B2001820F4307807AE007908C4
:10009000AF00013003180230AF0783160810831237
:1000A00008142F08B000B00AB00303195B28FF3012
:1000B000B1002D2054282E08B1002D2083160810E1
:1000C000831208108A110A12EF292F08B1002E0896
:1000D000B000B3010C30B2001820F4307807AE0045
:1000E0007908AF00013003180230AF07831688107B
:1000F000831288142F08B000B00AB00303198428B3
:10010000FF30B1002D207D282E08B1002D20831650
:100110008810831288108A110A12F429FF30A00077
:1001200020132008831687008312071783161F14D5
:100130009F141F159F1107309C0083131F308305E8
:1001400000308800FF3085001F149F101F119F157D
:100150008312A2013C30A100A4012D30A300C830BD
:10016000A5000030F8001F08C73978049F0002304E
:10017000AE0004201F151F19BB2883161E0883120A
:10018000AE001E0CA7002E0CA600A70CA60CA70CF8
:10019000A60CA70CA60CA70CA60CA70CA60C03304B
:1001A000A7050830F8001F08C73978049F000230FF
:1001B000AE0004201F151F19DB2883161E088312AA
:1001C000AE001E0CA9002E0CA800A90CA80CA90CAE
:1001D000A80CA90CA80CA90CA80CA90CA80C0330FD
:1001E000A9051030F8001F08C73978049F000230B5
:1001F000AE0004201F151F19FB2883161E0883124A
:10020000AE001E0CAB002E0CAA00AB0CAA0CAB0C63
:10021000AA0CAB0CAA0CAB0CAA0CAB0CAA0C0330AE
:10022000AB051830F8001F08C73978049F0002306A
:10023000AE0004201F151F191B2983161E088312E8
:10024000AE001E0CAD002E0CAC00AD0CAC0CAD0C19
:10025000AC0CAD0CAC0CAD0CAC0CAD0CAC0C033060
:10026000AD0525082607AE002708AF000318AF0A22
:100270002F082D02031C4E29031D42292C082E0293
:1002800003184E2921080319A203A10B4D29A20826
:10029000031D4D29A2010130A1006C2925082C075E
:1002A000F8002D08FA000318FA0A7A082702031C3E
:1002B0006C29031D5F292608780203186C29A10AFE
:1002C0000319A20AA208031D69292108AA3C0318E0
:1002D0006C29A201AA30A100A208031D73292108DC
:1002E0003C3C0318AF2925082807AE002908AF00B9
:1002F0000318AF0A2F082B02031C9029031D842921
:100300002A082E020318902923080319A403A30B1B
:100310008F29A408031D8F29A4010130A300AE2951
:1003200025082A07F8002B08FA000318FA0A7A08A9
:100330002902031CAE29031DA129280878020318ED
:10034000AE29A30A0319A40AA408031DAB29230894
:10035000A03C0318AE29A401A030A300EA29C830AC
:100360002A07AE002B08AF000318AF0A2F08290296
:10037000031CCC29031DC02928082E020318CC29F0
:1003800023080319A403A30BCB29A408031DCB291D
:10039000A4010130A300EA29C8302807F800290881
:1003A000FA000318FA0A7A082B02031CEA29031D33
:1003B000DD292A0878020318EA29A30A0319A40AE6
:1003C000A408031DE7292308A03C0318EA29A40177
:1003D000A030A3002208AF002108AE003C2824086A
:1003E000AF002308AE0065281230AE000420B1280B
:0203F0006300A8
:02400E00323F3F
:00000001FF
;PIC16F877A
;CRC=8BE9  CREATED="04-Þub-21 01:58"
